:100000000C9444160C946E160C946E160C946E168A
:100010000C946E160C946E160C946E160C946E1650
:100020000C946E160C946E160C946E160C946E1640
:100030000C946E160C94FD740C946E160C946E1643
:100040000C946E160C9473B50C94E1AE0C946E1671
:100050000C94AF420C946E160C946E160C946E16A3
:100060000C946E160C946E160C946E160C946E1600
:100070000C946E160C946E160C946E160C946E16F0
:100080000C94B47C0C946E160C946E16A485A78503
:100090009A859E85BE85BE85AB85AF85B585B985BC
:1000A00050AE55AE5AAE64AE92AE92AE6EAE76AE75
:1000B0007EAE88AE084AD73B3BCE016E84BCBFFD06
:1000C000C12F3D6C74319ABD56833DDA3D00C77F28
:1000D00011BED9E4BB4C3E916BAAAABE00000080C1
:1000E0003F05A84CCDB2D44EB93836A9020C50B950
:1000F000918688083CA6AAAA2ABE000000803F007C
:100100004E414E494E495459494E46CDCCCC3D0AFC
:10011000D7233C17B7D13877CC2B329595E6241FDF
:10012000B14F0A000020410000C84200401C462098
:10013000BCBE4CCA1B0E5AAEC59D74536C6565702F
:100140002E2E2E00205A3A200020593A20004265D7
:100150006420583A20004D65736820706F696E7492
:100160002063616E6E6F74206265207265736F6CC0
:100170007665640A00436C69636B20746F20726556
:1001800073756D652E2E2E004E6F206D6F76652E69
:1001900000456E642066696C65206C6973740A00A2
:1001A000426567696E2066696C65206C6973740AC4
:1001B0000046696C652064656C657465643A00444A
:1001C000656C6574696F6E206661696C65642C206E
:1001D00046696C653A20002569730025696D202504
:1001E0006973002569682025696D202569730025DC
:1001F0006964202569682025696D202569730025BB
:10020000697920256964202569682025696D202584
:100210006973005072696E742074696D653A2000CC
:100220004B494C4C45442E20004D31313320530076
:1002300020573A0042656420636F6F6C696E672EC9
:100240002E2E004265642068656174696E672E2EEB
:100250002E00456E6465722D33204F66662E002C8D
:1002600020002C2000544845524D414C5F50524FC5
:1002700054454354494F4E004155544F5245504FF9
:1002800052545F53445F53544154555300454D45B8
:100290005247454E43595F504152534552004341E6
:1002A00053455F4C494748545F4252494748544E72
:1002B00045535300544F47474C455F4C49474854BA
:1002C0005300534F4654574152455F504F57455284
:1002D000004255494C445F50455243454E54004CF2
:1002E0004556454C494E475F44415441005A5F5082
:1002F000524F4245004155544F4C4556454C0050D5
:1003000052494E545F4A4F420050524F4752455354
:1003100053004155544F5245504F52545F54454D30
:100320005000564F4C554D45545249430045455099
:10033000524F4D0053455249414C5F584F4E5F5804
:100340004F4646004649524D574152455F4E414D3A
:10035000453A4D61726C696E20312E312E3920285C
:100360004769746875622920534F555243455F436E
:100370004F44455F55524C3A68747470733A2F2F4E
:100380006769746875622E636F6D2F4D61726C6959
:100390006E4669726D776172652F4D61726C696E20
:1003A0002050524F544F434F4C5F56455253494F84
:1003B0004E3A312E30204D414348494E455F545905
:1003C00050453A456E6465722D3320455854525558
:1003D0004445525F434F554E543A31205555494498
:1003E0003A63656465326132662D343161322D3491
:1003F0003734382D396231322D6335356336326604
:1004000033363766660A002F2F20004D31343520F1
:10041000533C696E6465783E206F7574206F66206A
:1004200072616E67652028302D31290A0020540042
:10043000205200416363656C65726174696F6E3A46
:100440002050005741524E494E4721204C6F772093
:100450005A204A65726B206D6179206C6561642059
:10046000746F20756E77616E74656420706175734A
:1004700065732E0A004F6666736574732061707031
:100480006C696564004572723A20546F6F20666132
:10049000722100546F6F206661722066726F6D204A
:1004A0007265666572656E636520706F696E740A49
:1004B00000205A00205900580020204D61783A2031
:1004C00000205A00205900580020204D696E3A2023
:1004D000004F6E20004F666600536F667420656E95
:1004E0006473746F70733A200020466C6F773A2003
:1004F0000000010F150E12FFFFFFFF16170E13FF6E
:10050000FFFFFF03021A14FFFFFFFFFFFFFF0C04B2
:10051000FFFFFF01000EFFFFFF0C190DFF18206FFA
:100520007574206F662072616E67650A005365728C
:10053000766F20003A200020536572766F200050BD
:10054000726F6265205A204F66667365743A2000A8
:1005500020643A0020693A0020703A00496E7661C2
:100560006C69642065787472756465720A0023642E
:100570006566696E652044454641554C545F4B6441
:10058000200023646566696E652044454641554CEC
:10059000545F4B69200023646566696E652044459D
:1005A0004641554C545F4B702000504944204175E2
:1005B000746F74756E652066696E69736865642111
:1005C0002050757420746865206C617374204B70C2
:1005D0002C204B6920616E64204B6420636F6E7326
:1005E00074616E74732066726F6D2062656C6F77D4
:1005F00020696E746F20436F6E66696775726174EF
:10060000696F6E2E680A00504944204175746F74FA
:10061000756E65206661696C6564212074696D651D
:100620006F75740A00453120544845524D414C20A5
:1006300052554E4157415900546865726D616C20A6
:1006400052756E6177617900453120486561746942
:100650006E67206661696C65640048656174696EE7
:1006600067206661696C6564005049442041757477
:100670006F74756E65206661696C656421205465D0
:100680006D706572617475726520746F6F20686932
:1006900067680A00204B643A2000204B693A20002A
:1006A000204B703A20000A20436C61737369632009
:1006B000504944200A002054753A2000204B753AD6
:1006C0002000206D61783A2000206D696E3A20008C
:1006D00020643A200020626961733A200050494446
:1006E000204175746F74756E65206661696C656410
:1006F000212054656D706572617475726520746F28
:100700006F20686967680A00504944204175746F1A
:1007100074756E652073746172740A0050494420C8
:100720004175746F74756E65206661696C656421CE
:1007300020426164206578747275646572206E75FC
:100740006D6265720A004F66660A00466164652044
:100750004865696768742000426564204C65766569
:100760006C696E6720004661696C656420746F2057
:10077000656E61626C6520426564204C6576656CCF
:10078000696E670A004D65736820706F696E74202A
:1007900063616E6E6F74206265207265736F6C7634
:1007A00065640A004D34323120696E636F72726580
:1007B000637420706172616D657465722075736118
:1007C00067650A003A200050726F6265205A204F18
:1007D0006666736574003F5A206F7574206F6620DB
:1007E00072616E676520282D323020746F203230A0
:1007F000290A0041637469766520457874727564CE
:1008000065723A2000496E76616C6964206578747F
:1008100072756465720A004E6F20436865636B737E
:10082000756D2077697468206C696E65206E756DD2
:100830006265722C204C617374204C696E653A209D
:10084000004B494C4C45442E200053544F505045CA
:10085000442E20005072696E7465722073746F703C
:100860007065642064756520746F206572726F72A4
:10087000732E2046697820746865206572726F72E5
:1008800020616E6420757365204D39393920746F8D
:1008900020726573746172742E202854656D7065C2
:1008A0007261747572652069732072657365742E48
:1008B00020536574206974206166746572207265C6
:1008C0007374617274696E67290A004E6F20436801
:1008D00065636B73756D2077697468206C696E65EC
:1008E000206E756D6265722C204C617374204C69AA
:1008F0006E653A2000636865636B73756D206D6982
:10090000736D617463682C204C617374204C696E44
:10091000653A20004C696E65204E756D62657220E7
:100920006973206E6F74204C617374204C696E651E
:10093000204E756D6265722B312C204C61737420D2
:100940004C696E653A20004D313130004D33310035
:1009500053442072656164206572726F720A0044AC
:100960006F6E65207072696E74696E672066696C5F
:10097000650A0020496E76616C696420657874723E
:100980007564657220000000000000000000000097
:10099000000000006B4300006B4300007A43426993
:1009A0006C696E656172204C6576656C696E672056
:1009B000477269643A0A0047322F47332062616404
:1009C00020706172616D65746572730A00434F4DEA
:1009D0004D554E49434154494F4E0044525952558A
:1009E0004E004552524F525300494E464F00454328
:1009F000484F00202844525952554E290047323959
:100A0000204175746F20426564204C6576656C6981
:100A10006E67003F20284C2C522C462C4229206F18
:100A20007574206F6620626F756E64732E0A003FC6
:100A30002856296572626F7365206C6576656C2037
:100A4000697320696D706C61757369626C652028CB
:100A5000302D34292E0A00426164205A2076616CC0
:100A600075650A004E6F2062696C696E656172205F
:100A7000677269640A00286E6F2066696C652900D8
:100A80005344207072696E74696E67206279746570
:100A900020004E6F74205344207072696E74696E2A
:100AA000670A0043757272656E742066696C653AF8
:100AB000200050726F7465637465642050696E0A1B
:100AC000006F6B0020573A004520436F6F6C696ED2
:100AD000672E2E2E00452048656174696E672E2EA4
:100AE0002E00EE09E909E209DB09CD096F6666000F
:100AF00044454255473A00205A3A0020593A0020CE
:100B0000436F756E7420583A0020453A00205A3AD7
:100B10000020593A00583A003A004361703A0043C5
:100B2000290A0061626C656420286D696E20746515
:100B30006D702000436F6C64206578747275646515
:100B400073206172652000454550524F4D204F4B38
:100B50000A004E6F2063617365206C696768740AD0
:100B600000454550524F4D206461746173697A6548
:100B7000206572726F722E0A00290A002062797451
:100B800065733B20637263200053657474696E67FC
:100B9000732053746F726564202800290A00206254
:100BA000797465733B2063726320002073746F72E5
:100BB00065642073657474696E67732072657472FE
:100BC0006965766564202800202863616C63756C14
:100BD0006174656429210A0020213D2000454550AB
:100BE000524F4D20435243206D69736D61746368A9
:100BF000202D202873746F726564292000205369AA
:100C00007A653A2000496E6465783A2000204D618B
:100C1000726C696E3D563536290A0028454550529A
:100C20004F4D3D00454550524F4D207665727369DA
:100C30006F6E206D69736D61746368200048617226
:100C400064636F6465642044656661756C742053E9
:100C5000657474696E6773204C6F616465640A0023
:100C6000F4010000F401000064000000881300009B
:100C70000000FA430000FA430000A0400000C84111
:100C80000000A0420000A0420000C8430000BA4299
:100C900025753A2530327500253032753A253032C7
:100CA000750025756420253032753A25303275007F
:100CB000202020202020005A005900202020200041
:100CC00058000920000000000000000000000000A3
:100CD00000003FFFF00000000000000000000000E6
:100CE000000038007000000000000000000000005C
:100CF000000030FC30000000000000000000000098
:100D0000000020FC100000000000000000000000B7
:100D1000000020781000000000000000000000002B
:100D20000000203010000000000000000000000063
:100D300000002C00D0F80180000C1FE0000008200B
:100D400080002E31D048008000123FF000000410D7
:100D500040002F7BD043C38CD0023FF00000041032
:100D600040002F7BD071249267CC3FF00000082018
:100D700080002E31D041249E40021FE0000010412F
:100D800000002C00D049249040121FE00000208277
:100D90000000203010FBB3CEE00C3FF000002082BA
:100DA000000020781000000000003FF0000010411B
:100DB000000020FC1000000000003FF000000820B0
:100DC000800030FC3000000000000FC00000000078
:100DD0000000380070000000000007800000FFFFE6
:100DE000C0003FFFF0000000000003000000FFFF14
:100DF000C000000000000000000000000000000033
:100E000000003FFFF00000000000000000000000B4
:100E1000000038007000000000000000000000002A
:100E200000003387300000000000000000000000D8
:100E30000000278790000000000000000000000074
:100E400000002F87D000000000000000000000001C
:100E500000002F87D000000000000000000000000C
:100E600000002F03D0F80180000C1FE000000820D4
:100E7000800020301048008000123FF00000041075
:100E8000400020781043C38CD0023FF000000410D3
:100E9000400020781071249267CC3FF000000820B9
:100EA000800020301041249E40021FE000001041CD
:100EB00000002F03D049249040121FE00000208240
:100EC00000002F87D0FBB3CEE00C3FF00000208263
:100ED00000002F87D000000000003FF0000010410C
:100EE000000027879000000000003FF0000008206D
:100EF000800033873000000000000FC000000000B9
:100F00000000380070000000000007800000FFFFB4
:100F1000C0003FFFF0000000000003000000FFFFE2
:100F2000C00000000000060900FE000000000001F3
:100F3000090008FE000005080806000040F0C88807
:100F400088987810050808060000C0F88888888806
:100F500088F80505050600012030F830200508084E
:100F60000600002070F820202020E0050909060076
:100F7000FF2070A8A8B8888870200509090600FF1E
:100F8000E080C0B0A8283028280509090600FFF82D
:100F9000A88888888888A8F8050A0A0600FE2050D4
:100FA00050505088A8A8887003030306000340A08F
:100FB000407C3C3E5E2B3D3F2F5B5D3B2C2A225C00
:100FC000004572726F722077726974696E6720745F
:100FD0006F20454550524F4D210A003A0A00202803
:100FE0006D6D290020204D383531205A005A2D5082
:100FF000726F6265204F666673657400204400203E
:10100000490020204D333031205000504944207396
:10101000657474696E67733A0A00204600204200C6
:1010200020480020204D3134352053004D61746537
:101030007269616C2068656174757020706172619D
:101040006D65746572733A0A00205A00204A0020C8
:10105000204732392057204900205A0020204D34A3
:1010600032302053004175746F20426564204C6516
:1010700076656C696E673A0A00205A002059002094
:10108000204D323036205800486F6D65206F6666FF
:101090007365743A0A00204500205A002059002048
:1010A000580020540020530020204D32303520516C
:1010B0000020453C6D61785F655F6A65726B3E003C
:1010C00020583C6D61785F785F6A65726B3E20598D
:1010D0003C6D61785F795F6A65726B3E205A3C6D4A
:1010E00061785F7A5F6A65726B3E00416476616E1B
:1010F0006365643A20513C6D696E5F7365676D6529
:101100006E745F74696D655F75733E20533C6D69E5
:101110006E5F66656564726174653E20543C6D69FE
:101120006E5F74726176656C5F666565647261742A
:10113000653E0020540020520020204D32303420E3
:101140005000416363656C65726174696F6E20283D
:10115000756E6974732F7332293A20503C7072692E
:101160006E745F616363656C3E20523C726574729D
:101170006163745F616363656C3E20543C747261AB
:1011800076656C5F616363656C3E0A0020450020F4
:101190005A0020590020204D3230312058004D6136
:1011A00078696D756D20416363656C657261746902
:1011B0006F6E2028756E6974732F7332293A0A0096
:1011C000204500205A0020590020204D3230332085
:1011D00058004D6178696D756D2066656564726152
:1011E0007465732028756E6974732F73293A0A0029
:1011F000204500205A0020590020204D3932205827
:101200000053746570732070657220756E69743A4E
:101210000A0020204D3230302044300A0020204D7A
:101220003230302044002044697361626C65640A86
:101230000046696C616D656E742073657474696EC7
:1012400067733A0020204D3134392043203B20552C
:101250006E69747320696E2043656C736975730AD7
:10126000002020473231202020203B00486F6D694C
:101270006E67206661696C65640054524947474552
:10128000524544006F70656E003A20007A5F6D69C8
:101290006E00795F6D696E00785F6D696E005265F2
:1012A000706F7274696E6720656E6473746F7020FE
:1012B0007374617475730A0024F4D43050C38E20A3
:1012C000C2A24017828B7011127A910D816CD90ADB
:1012D000A861E108C7586607615143061E4B5D05CA
:1012E000C145A7041A411104093D9803713931031E
:1012F0004036DB0265339102D4305402802E1D0249
:10130000632CEE01752AC501B028A00110278101C8
:101310008F2564012B244B01E0223401AC211F01F5
:101320008D200D01801FFC00841EED00971DDF0045
:10133000B81CD200E61BC600201BBC00641AB20019
:10134000B219A8000A19A0006A189900D1179100D3
:1013500040178B00B516840031167E00B315790056
:101360003A157300C7146F0058146A00EE13660034
:101370008813630025135E00C7125B006C125700D0
:1013800015125400C111510070114F0021114B0072
:10139000D61049008D10470046104400021042004C
:1013A000C00F4000800F3E00420F3C00060F3B0084
:1013B000CB0E3800930E37005C0E3500270E34003C
:1013C000F30D3200C10D3100900D3000600D2E0084
:1013D000320D2D00050D2C00D90C2B00AE0C290070
:1013E000850C29005C0C2700350C27000E0C26000C
:1013F000E80B2400C40B2400A00B23007D0B23006A
:101400005A0B2100390B2100180B2000F80A1F008D
:10141000D90A1E00BB0A1E009D0A1D00800A1D007D
:10142000630A1C00470A1B002C0A1B00110A1A0041
:10143000F7091A00DD091900C4091900AB091900E0
:10144000920917007B091800630917004C09160060
:1014500036091600200916000A091500F5081500BE
:10146000E0081400CC081400B8081400A408140004
:10147000900813007D0812006B0813005808120032
:101480004608120034081100230811001208110048
:1014900001081100F0071000E0071000D00710004D
:1014A000C0071000B0070F00A107100091070E0041
:1014B00083070F0074070F0065070E0057070E0023
:1014C00049070E003B070D002E070E0020070D00F8
:1014D00013070D0006070D00F9060C00ED060D00C0
:1014E000E0060C00D4060C00C8060C00BC060C007C
:1014F000B0060C00A4060B0099060C008D060B002C
:1015000082060B0077060B006C060B0061060A00D2
:1015100057060B004C060A0042060A0038060A006D
:101520002E060A0024060A001A060A001006090000
:1015300007060A00FD050900F4050900EB0509008E
:10154000E2050900D9050900D0050900C705090011
:10155000BE050900B5050800AD050800A505090090
:101560009C050800940508008C0508008405080007
:101570007C050800740508006C0507006505080077
:101580005D050700560508004E05070047050700E2
:101590004005080038050700310507002A05070047
:1015A000230507001C050600160507000F050700A8
:1015B0000805060002050700FB040600F504070005
:1015C000EE040600E8040600E2040700DB0406005F
:1015D000D5040600CF040600C9040600C3040600B3
:1015E000BD040600B7040600B1040500AC04060003
:1015F000A6040600A00405009B040600950405004F
:10160000900406008A040500850405008004060095
:101610007A04050075040500700405006B040500DC
:1016200066040500610405005C040500570405001C
:10163000520405004D04050048040500430405005C
:101640003E0404003A04050035040500300404009B
:101650002C04050027040400230405001E040400D4
:101660001A04040016040500110404000D0404000B
:10167000090405000404040000040400FC03040041
:10168000F8030400F4030400F0030400EC03040076
:10169000E8030400E4030400E0030400DC030400A6
:1016A000D8030400D4030400D0030400CC030400D6
:1016B000C8030300C503030024F404D9201BC40C91
:1016C0005C0E9804C4095F0265077101F405F90016
:1016D000FB04B30048048700C103690058035500A8
:1016E00003034500BE023A008402310053022A007F
:1016F0002902250004022000E4011C00C801190091
:10170000AF0117009801140084011300710110004B
:101710006101100051010E0043010D0036010B0064
:101720002B010B0020010B00150109000C01090021
:1017300003010800FB000800F3000800EB000700AD
:10174000E4000600DE000600D8000600D200060015
:10175000CC000500C7000500C2000500BD00040064
:10176000B9000400B5000400B1000400AD0004009D
:10177000A9000400A5000300A20003009F000400CC
:101780009B000300980003009500020093000300F3
:10179000900003008D0002008B000300880002000F
:1017A0008600020084000300810002007F00020026
:1017B0007D0002007B00020079000200770001003A
:1017C0007600020074000200720001007100020045
:1017D0006F0002006D0001006C0002006A00010051
:1017E0006900020067000100660001006500010059
:1017F000640002006200010061000100600001005D
:101800005F0002005D0001005C0001005B00010060
:101810005A00010059000100580001005700010062
:101820005600010055000100540001005300000063
:10183000530001005200010051000100500001005E
:101840004F0001004E0000004E0001004D0001005D
:101850004C0001004B0000004B0001004A00010059
:101860004900010048000000480001004700010055
:101870004600000046000100450000004500010050
:10188000440001004300000043000100420000004A
:101890004200010041000000410001004000010041
:1018A0003F0000003F0001003E0000003E0001003C
:1018B0003D0000003D0001003C0000003C00000035
:1018C0003C0001003B0000003B0001003A0000002A
:1018D0003A00010039000000390001003800000022
:1018E0003800000038000100370000003700010018
:1018F0003600000036000000360001003500000010
:101900003500000035000100340000003400000004
:1019100034000100330000003300000033000100F8
:1019200032000000320000003200010031000000EF
:1019300031000000310001003000000030000000E4
:10194000300001002F0000002F0000002F000000D9
:101950002F0001002E0000002E0000002E000100CC
:101960002D0000002D0000002D0000002D000100C2
:101970002C0000002C0000002C0000002C000100B6
:101980002B0000002B0000002B0000002B000100AA
:101990002A0000002A0000002A0000002A0001009E
:1019A0002900000029000000290000002900000093
:1019B0002900010028000000280000002800000085
:1019C0002800000028000100270000002700000078
:1019D000270000002700000027000100260000006B
:1019E000260000002600000026000000260001005E
:1019F0002500000025000000250000002500000053
:101A00002500000025000100240000002400000043
:101A10002400000024000000240001002300000036
:101A2000230000002300000023000000230000002A
:101A3000230000002300010022000000220000001B
:101A4000220000002200000022000000220001000D
:101A50002100000021000000210000002100000002
:101A600021000000210000002100010020000000F2
:101A700020000000200000002000000020000000E6
:101A80002000000020000000200001001F000000D6
:101A90001F0000001F0000001F0000001F000000CA
:101AA0001F0000001F0001001E0000001E000000BB
:101AB0001E0000001E000000043700001E29000068
:101AC000511B00005810000010090000CC04000059
:101AD00078020000410100004578747275646572F7
:101AE000004D6F7665205A004D6F76652059004D88
:101AF0006F7665205800507265706172650052659E
:101B000073746F7265206661696C73616665004C01
:101B10006F61642073657474696E67730053746FCA
:101B200072652073657474696E677300424C546FFC
:101B30007563680046696C616D656E74004D6F7405
:101B4000696F6E0054656D706572617475726500C1
:101B50004D61696E004D3330332055312045256984
:101B60002053256900504944204175746F74756E87
:101B70006500504944204175746F74756E6500505E
:101B800049442D44005049442D44005049442D49B6
:101B9000005049442D49005049442D5000504944BB
:101BA0002D50002008204661637400200820466103
:101BB0006374002008204D6178002008204D617872
:101BC000002008204D696E002008204D696E004FEE
:101BD0006666004F6E20004175746F74656D70000D
:101BE00046616E2073706565640046616E20737097
:101BF0006565640042656400426564004E6F7A7AF0
:101C00006C65004E6F7A7A6C6500436F6E74726F0C
:101C10006C0000002100240027002A0000002200A0
:101C2000250028002B0000002000230026002900AA
:101C30000202020202020202040404040404040474
:101C40000303030303030303010101010101010174
:101C50000102040810204080010204081020408086
:101C60000102040810204080804020100804020176
:101C7000000000010200090A000000000403080738
:101C80000000000000000000000000000000000054
:101C90004B494C4C45442E2000202D20496E766146
:101CA0006C6964206578747275646572206E756DF8
:101CB00062657220210A002020506C616E6E657290
:101CC00042756666657242797465733A20002046F3
:101CD000726565204D656D6F72793A2000436F6DB6
:101CE00070696C65643A204A616E2032312032306E
:101CF00032300A00207C20417574686F723A2028C7
:101D00007468697369736B65697468622C20456EC9
:101D10006465722D33290A00323031382D30382D68
:101D2000303100204C6173742055706461746564B7
:101D30003A2000312E312E390A004D61726C696EE5
:101D40000020536F66747761726520526573657405
:101D50000A00205761746368646F67205265736579
:101D6000740A002042726F776E206F75742052657E
:101D70007365740A002045787465726E616C205238
:101D8000657365740A00506F77657255700A007349
:101D9000746172740A006175746F25692E6700653D
:101DA00072726F722077726974696E6720746F2027
:101DB00066696C650A00456E6473746F70732025E4
:101DC0006320256320256320256300205A3A0020E4
:101DD000593A0020583A00656E6473746F7073202E
:101DE0006869743A2000446F6E6520736176696E8D
:101DF000672066696C652E0A004D32390070012C2F
:101E00000190012701B0012201C0011D01F001185C
:101E1000011002130130020E016002090190020458
:101E200001C002FF000003FA004003F5008003F048
:101E300000D003EB002004E6007004E100E004DCC5
:101E4000004005D700C005D2004006CD00D006C82E
:101E5000008007C3003008BE00F008B900C009B414
:101E600000B00AAF00B00BAA00D00CA500000EA075
:101E700000500F9B00C01096005012910000148C6F
:101E800000C0158700B0178200B0197D00D01B7804
:101E900000001E730040206E0090226900F0246450
:101EA0000040275F0090295A00E02B5500102E506B
:101EB0000020304B0010324600E033410090353CAA
:101EC000001037370070383200A0392D00B03A28A2
:101ED00000A03B2300603C1E00103D1900903D1403
:101EE00000103E0F00703E0A00C03E0500003F009B
:101EF00000403FFBFF803FF6FFC03FF1FF202F0077
:101F00002042403A0020403A0020746F6F206C6FEE
:101F10006E6720657874727573696F6E2070726574
:101F200076656E7465640A0020636F6C6420657862
:101F300074727573696F6E2070726576656E746504
:101F4000640A00456E6465722D33205265616479C0
:101F50002E005072696E74696E672E2E2E005072BC
:101F6000696E742070617573656400436D643A2016
:101F700053746F7700436D643A204465706C6F79D9
:101F800000436D643A2053656C662D54657374008C
:101F9000436D643A2053572D4D6F646500436D6463
:101FA0003A205265736574004D61696E0050726924
:101FB0006E742061626F7274656400496E69742E7C
:101FC0002053442063617264004D3231004E6F2013
:101FD00053442063617264004368616E67652053F7
:101FE000442063617264004D3231005072696E7436
:101FF0002066726F6D2053440053746F70207072AE
:10200000696E7400526573756D65207072696E74C7
:102010000041626F7574205072696E746572005071
:1020200061757365207072696E7400436F6E7472AF
:102030006F6C00507265706172650054756E65005A
:10204000496E666F2073637265656E0050726F62D1
:1020500065205A204F66667365740050726F626522
:10206000205A204F666673657400466C6F77004691
:102070006C6F770046616E20737065656400466121
:102080006E2073706565640042656400426564009B
:102090004E6F7A7A6C65004E6F7A7A6C6500537079
:1020A000656564005370656564004D61696E00503C
:1020B00072656865617420504C4120456E64005023
:1020C00072656865617420504C412042656400501F
:1020D00072656865617420504C4100507265706192
:1020E00072650050726568656174204142532042F8
:1020F00065640050726568656174204142532045F3
:102100006E640050726568656174204142530050EE
:1021100072657061726500436D643A205265736543
:1021200074004D3238302050302053313630004367
:102130006D643A2053656C662D54657374004D329E
:10214000383020503020533132300050726568658D
:10215000617420414253005072656865617420507B
:102160004C4100436F6F6C646F776E00446973611C
:10217000626C65207374657070657273004D3834DD
:10218000004175746F20686F6D6500473238004DEF
:102190006F76652061786973004D61696E004D6FDF
:1021A00076652058004D6F76652059004D6F766535
:1021B000205A004578747275646572004D6F7665BB
:1021C00020302E316D6D004D6F766520316D6D00C4
:1021D0004D6F76652031306D6D004D6F76652061F5
:1021E000786973004578747275646572004D6F7616
:1021F00065205A004D6F76652059004D6F76652039
:102200005800486F6D652025732573257320666916
:10221000727374002066697273740A005A00590060
:102220005800486F6D65200057726974696E6720A9
:10223000746F2066696C653A20006F70656E206669
:1022400061696C65642C2046696C653A20006F708A
:10225000656E206661696C65642C2046696C653A20
:10226000200046696C652073656C65637465640A5B
:10227000002053697A653A200046696C65206F70CA
:10228000656E65643A20002066696C653A200064DA
:102290006F696E67006672657368004E6F77200025
:1022A000454E4420535542524F5554494E450A001D
:1022B0002220706F73002220706172656E743A2262
:1022C00000535542524F5554494E452043414C4CC2
:1022D000207461726765743A22004B494C4C454446
:1022E0002E2000747279696E6720746F2063616CB0
:1022F0006C207375622D67636F64652066696C6519
:1023000073207769746820746F6F206D616E792017
:102310006C6576656C732E204D4158206C65766532
:102320006C2069733A004572726F723A0043616EB5
:102330006E6F74206F70656E2073756264697220B1
:10234000006563686F3A0000060900FE070192030A
:1023500021207FFF07FF07FF0000000600000107A4
:102360000706020080808080800080030202060150
:1023700005A0A00507070600005050F850F850507F
:102380000507070600002078A07028F02005070741
:10239000060000C0C8102040981805070706000076
:1023A0006090A040A89068020303060104C040802A
:1023B00003070706010020408080804020030707B4
:1023C0000601008040202020408005050506000110
:1023D00020A870A8200505050600012020F820206F
:1023E0000203030602FFC04080050101060003F856
:1023F000020202060200C0C0050505060001081021
:10240000204080050707060000708888888888704B
:1024100003070706010040C040404040E0050707B1
:10242000060000708808708080F805070706000025
:10243000F81020100808F0050707060000103050BB
:1024400090F81010050707060000F880F0080888CB
:1024500070050707060000708080F0888870050707
:1024600007060000F80810202020200507070600B6
:1024700000708888708888700507070600007088DB
:102480008878080870020505060200C0C000C0C0B8
:102490000206060602FFC0C000C04080040707060F
:1024A000000010204080402010050303060002F8C1
:1024B00000F8040707060100804020102040800536
:1024C000070706000070880810200020050707068F
:1024D000000070880868A8A870050707060000704B
:1024E0008888F8888888050707060000F08888F043
:1024F0008888F00507070600007088808080887053
:10250000050707060000F08888888888F005070717
:10251000060000F88080F08080F8050707060000BC
:10252000F88080F0808080050707060000708880B2
:10253000B8888870050707060000888888F88888AA
:102540008801070706020080808080808080050760
:1025500007060000381010101090600507070600ED
:10256000008890A0C0A09088050707060000808022
:1025700080808080F805070706000088D8A8888832
:1025800088880507070600008888C8A898888805F5
:102590000707060000708888888888700507070686
:1025A0000000F08888F08080800507070600007032
:1025B000888888A89068050707060000F08888F0DA
:1025C000A09088050707060000788080700808F052
:1025D000050707060000F820202020202005070717
:1025E000060000888888888888700507070600002C
:1025F0008888888888502005070706000088888812
:102600008888A85005070706000088885020508851
:1026100088050707060000888888502020200507C5
:1026200007060000F80810204080F803070706019D
:1026300000E08080808080E0050505060001804084
:10264000201008030707060100E02020202020E0DA
:10265000050303060004205088050101060000F868
:10266000020202060205804005050506000070080A
:102670007888780507070600008080B0C88888F051
:1026800005050506000070808088700507070600B4
:102690000008086898888878050505060000708895
:1026A000F880700507070600003048E040404040D1
:1026B0000506060600FF708888780870050707067B
:1026C00000008080B0C88888880107070602008063
:1026D0000080808080800308080601FF2000202001
:1026E0002020A040040707060000808090A0C0A022
:1026F00090030707060100C04040404040E0050548
:1027000005060000D0A8A8A8A8050505060000B089
:10271000C8888888050505060000708888887005C7
:1027200006060600FFF08888F08080050606060091
:10273000FF788888780808050505060000B0C8807D
:10274000808005050506000070807008F00407070A
:102750000600004040E0404040300505050600000E
:1027600088888898680505050600008888885020B4
:102770000505050600008888A8A85005050506007F
:102780000088502050880506060600FF8888887853
:102790000870050505060000F8102040F80307073B
:1027A000060100204040804040200107070602004B
:1027B0008080808080808003070706010080404081
:1027C00020404080050202060002689000000006DA
:1027D00000006265640A002C2073797374656D20B3
:1027E00073746F7070656421204865617465725FF1
:1027F00049443A20004265642068656174696E67E7
:10280000206661696C65640048656174696E672063
:102810006661696C65640045312048656174696E64
:1028200067206661696C65640048656174696E67FC
:10283000206661696C656400453120544845524DFD
:10284000414C2052554E4157415900424544205475
:102850004845524D414C2052554E41574159005424
:102860006865726D616C2052756E617761790045A3
:1028700031204572723A204D415854454D50004523
:1028800072723A204D415854454D50204245440003
:102890004D415854454D50207472696767657265A3
:1028A00064004531204572723A204D494E54454DE1
:1028B00050004572723A204D494E54454D502042C9
:1028C0004544004D494E54454D5020747269676728
:1028D00065726564004D383420582059205A2045CF
:1028E00000526573656E643A20006F6B0020746F50
:1028F0006F206C6F6E6720657874727573696F6E88
:102900002070726576656E7465640A0020636F6C72
:102910006420657874727573696F6E207072657665
:10292000656E7465640A00627573793A207061752A
:1029300073656420666F7220696E7075740A006238
:102940007573793A2070617573656420666F7220C3
:10295000757365720A00627573793A2070726F63DD
:10296000657373696E670A004B494C4C45442E20D1
:10297000004B494C4C20636175736564206279207B
:10298000746F6F206D75636820696E61637469761A
:10299000652074696D65202D2063757272656E7493
:1029A00020636F6D6D616E643A2000556E6B6E6FC3
:1029B000776E20636F6D6D616E643A2022000000B7
:1029C0006B4300006B4300007A430000A04100000D
:1029D000A0410000804000000000FFFFFF486F6D35
:1029E000652058592066697273740A00486F6D65D6
:1029F0002058592066697273740050726F62696E54
:102A000067206661696C65640A0050726F62696E66
:102A100067206661696C656400205A3A200020597D
:102A20003A200042656420583A20005344206361F4
:102A30007264206F6B0A006F70656E526F6F742046
:102A40006661696C65640A00766F6C756D652E69E8
:102A50006E6974206661696C65640A00534420697C
:102A60006E6974206661696C0A00506C65617365FB
:102A7000207265736574005052494E544552204887
:102A8000414C544544005072696E7465722068610F
:102A90006C7465642E206B696C6C28292063616CF2
:102AA0006C6564210A00656E7175657565696E6790
:102AB000202200000000000000000000000000577D
:102AC00061726E696E673A20486F6D696E67204269
:102AD000756D702044697669736F72203C20310AED
:102AE000000202040000A0400000A04000000040DE
:102AF00050726F6265205A204F666673657400439A
:102B00006F6E74726F6C0046696C2E204469612E82
:102B10000046696C2E204469612E004F6666004FA6
:102B20006E20004520696E206D6D3300436F6E741A
:102B3000726F6C0043616E6E6F7420656E746572A7
:102B4000207375626469723A2000022E2E000152D1
:102B5000656672657368004D61696E006F70656EC1
:102B6000206661696C65642C2046696C653A2000BA
:102B70004D61782054656D703A20313235004D69D1
:102B80006E2054656D703A203500544265643A45B4
:102B900050434F53203130304B004D617820546505
:102BA0006D703A20323735004D696E2054656D7076
:102BB0003A20350054303A204550434F53203130AD
:102BC000304B005053553A2047656E65726963007B
:102BD00050726F746F636F6C3A20312E3000426117
:102BE00075643A20313135323030004D656C7A6988
:102BF0002028437265616C697479290042696C69A7
:102C00006E656172204C6576656C696E670045780B
:102C1000747275646572733A203100687474703A26
:102C20002F2F6D61726C696E66772E6F726700452B
:102C30006E6465722D3300323031382D30382D30CE
:102C40003100312E312E39004D61726C696E0054A5
:102C50006865726D6973746F727300426F6172643C
:102C600020496E666F005072696E74657220496EFD
:102C7000666F004D61696E004D3234004D32332075
:102C800025730000F2E9D1E911241FBECFEFD0E493
:102C9000DEBFCDBF12E0A0E0B1E0E6E7F0EF01E07B
:102CA0000BBF02C007900D92A836B107D9F723E1F8
:102CB000A8E6B2E001C01D92AE3BB207E1F716E113
:102CC000C3E4D6E104C02197FE010E94A1F7C234FB
:102CD000D107C9F70E94E3E40C942EF80C9400008D
:102CE0002F923F924F925F926F927F928F929F921C
:102CF000AF92BF92CF92DF92EF92FF920F931F930A
:102D0000CF93DF93CDB7DEB7C356D1090FB6F89492
:102D1000DEBF0FBECDBF91E09093910F8091B713AE
:102D20008D3409F409C3843511F40C943C2C873498
:102D300011F00C94882C2091B5133091B6132C31DE
:102D4000310509F476C084F4243031054CF4223086
:102D5000310544F537FDECC20E9465380C948A2C8D
:102D60002430310541F1E4C22A32310509F43EC173
:102D70004CF42D31310509F460C02E31310509F4D0
:102D800060C0D6C22B35310509F40CC22C35310593
:102D900009F40CC22A35310509F0CAC210926C023E
:102DA0000C948A2C81E02230310509F080E00E94E9
:102DB00088380C948A2C80E50E94D337882329F028
:102DC0000E9415376B017C0103C0C12CD12C760108
:102DD00083E50E94D337882361F00E94593720E0B1
:102DE00030E04AE754E40E9469F00E94CEF56B019E
:102DF0007C010E94116C80910D0E811105C060E074
:102E00008BE391E00E9457BF0E94D5AEC60ED71E3D
:102E1000E81EF91E0E94D5AEDC01CB018C199D097C
:102E2000AE09BF09B7FD02C00C948A2C0E9425C3CD
:102E3000F1CF0E94BCCF0C948A2C0E9444480C9481
:102E40008A2CC090510ED090520EE090530EF0900C
:102E5000540E88E50E94D337811109C020E030E08C
:102E600040E252E4C701B6010E945AF402C00E9437
:102E7000593768A379A38AA39BA3C090550ED0901D
:102E8000560EE090570EF090580E89E50E94D33709
:102E9000811109C020E030E040E251E4C701B601F1
:102EA0000E945AF402C00E9459379B01AC01698309
:102EB0007A838B839C8368A179A18AA19BA10E94BC
:102EC0006ED6882311F40C948A2C80E00E943F3641
:102ED0000E94C33285E40E94D337882321F00E94E8
:102EE0004937182F04C085E40E948C3711E086E52D
:102EF0000E94D337882321F00E942537262F01C056
:102F000021E0412FBE016F5F7F4FCE0180960E946E
:102F1000B4CD6B017C019B01AC010E944DF7811186
:102F20005FC088A099A0AAA0BBA020E030E0A901C2
:102F3000C501B4010E9403F087FD05C027E137EB0E
:102F400041E558E304C027E137EB41E558EBC50103
:102F5000B4010E945BF4AB01BC018EE491E00E94DD
:102F6000967D89809A80AB80BC8020E030E0A9010A
:102F7000C501B4010E9403F087FD05C027E137EBCE
:102F800041E558E304C027E137EB41E558EBC501C3
:102F9000B4010E945BF4AB01BC0189E491E00E94A2
:102FA000967D20E030E0A901C701B6010E9403F040
:102FB00087FD05C027E137EB41E558E304C027E171
:102FC00037EB41E558EBC701B6010E945BF4AB015A
:102FD000BC0184E491E00E94967D8AE00E947E38E4
:102FE0000E94AA320E94F0430C948A2C80914601E0
:102FF000882311F40C948A2C89E40E94D337182F6B
:10300000882321F00E942537E62E01C0E12C8AE4B6
:103010000E94D337082F882331F00E942537F62EDF
:10302000111104C00BC0F12C1123C1F022E02E15A8
:1030300010F00C94BD30E6E5F1E004C032E03F153D
:10304000D0F30CC084918F010F5F1F4F882311F4C0
:103050000C948A2C0E947E38F801F4CF0E947438B8
:103060001123F1F020913303309134034E2D4203AC
:10307000B001439F700D11248091DC029091DD021C
:10308000680F791F072E000C880B990B0E940AF01D
:103090006093DC0F7093DD0F8093DE0F9093DF0F52
:1030A0000023F1F020913503309136035F2D520358
:1030B000B001539F700D11242091DE023091DF0288
:1030C000620F731F072E000C880B990B0E940AF0E9
:1030D0006093E00F7093E10F8093E20F9093E30F02
:1030E00080E50E94D3378823E9F00E94493788237E
:1030F000A9F11123D9F020E030E040E252E46091E0
:10310000DC0F7091DD0F8091DE0F9091DF0F0E9438
:103110005BF46093DC0F7093DD0F8093DE0F909370
:10312000DF0F04C080E50E948C37E1CF0023B1F0AF
:1031300020E030E040E251E46091E00F7091E10F57
:103140008091E20F9091E30F0E945BF46093E00F97
:103150007093E10F8093E20F9093E30F86E40E9457
:10316000D3378823D9F00E9459376B017C0120E0C6
:1031700030E0A9010E94BBF6181684F420E030E08C
:1031800040E752E4C701B6010E9455F560935E0125
:1031900070935F0180936001909361010E94F4C578
:1031A0000C948A2C90936C020C948A2CB7E62B2EEC
:1031B000B1E03B2E1DEFC12E1FE0D12EE12CF12CF2
:1031C00000E010E0D1018D911D010E94D3378823CA
:1031D00009F44EC00E9459372B013C01133059F0BD
:1031E000F701E351F04F20813181428153810E94E8
:1031F0005AF42B013C01F701EF5AF14F2081318144
:1032000042815381C301B2010E945AF44B015C0117
:103210002DEB37E346E855EB0E94BBF687FD0AC06D
:103220002DEB37E346E855E3C501B4010E9403F0F6
:103230001816F4F4133051F440925D0E50925E0E65
:1032400060925F0E7092600E01E012C0A5019401C1
:10325000F60160817181828193810E945BF4D601C5
:103260006D937D938D939C931397812F0E9480344F
:103270001F5FB4E0CB0ED11CE4E0EE0EF11C143065
:1032800009F0A0CF002309F44FC020E030E0A901ED
:1032900060915D0E70915E0E80915F0E9091600E58
:1032A0000E945BF42091BC0B3091BD0B4091BE0B92
:1032B0005091BF0B0E9469F00E94C8F66093731092
:1032C00070937410809375109093761090915110B4
:1032D00080915210981719F00E94B36B25C00E947C
:1032E000116C80916F0081FB992790F981FF05C0D7
:1032F00080916F008D7F80936F004091731050918B
:103300007410609175107091761040934708509337
:1033100048086093490870934A08992329F08091DE
:103320006F00826080936F000E94F0430C948A2C9F
:103330000E94DDD10C948A2C8091B5139091B61324
:103340008637910509F4E7C60CF0C4C08C349105AA
:1033500009F4A2C40CF050C08931910509F4B4C23B
:103360001CF58431910509F441C27CF48131910549
:1033700009F431C22CF4029708F4B5C10C94392C2D
:10338000429709F442C50C94392C8631910509F411
:1033900074C20CF46EC28731910509F474C2489767
:1033A00009F487C20C94392C8E31910509F4A8C216
:1033B00084F48B31910509F49BC20CF48BC28C31DF
:1033C000910509F499C24D9711F40C948A2C0C9430
:1033D000392C8032910509F424C30CF46EC38A326F
:1033E000910509F410C48B34910511F00C94392C1B
:1033F0000E94A4BB0C948A2C8A36910509F4BCC4A3
:10340000DCF58435910509F400C5E4F481359105B6
:1034100009F4E2C44CF48D34910511F00C94392C6C
:103420000E948D740C948A2C8235910509F4E9C4AC
:103430008335910511F00C94392C81E080936B0257
:103440000C948A2C8C35910509F42FC534F48535FC
:10345000910509F40FC50C94392C8836910509F4AF
:103460001FC48936910511F00C94392C0E946247D3
:103470001092910F0C94C4308F36910509F427C433
:1034800084F48C36910509F426C40CF493C48D366B
:10349000910509F458C48E36910509F405C40C94BD
:1034A000392C8237910509F489C554F48037910588
:1034B00009F415C48137910509F419C40C94392C09
:1034C0008337910509F4B8C58537910509F412C60B
:1034D0000C94392C8D32F1E09F0711F40C9447269F
:1034E0000CF078C08B3C910509F451C7CCF58139BB
:1034F000910509F471C69CF48837910509F45FC6FB
:103500000CF459C68937910509F460C68C389105C9
:1035100011F00C94392C0E9432450C948A2C8E3B6D
:10352000910509F414C44CF48B39910511F00C94F5
:10353000392C0E9434470C948A2C883C910509F45C
:10354000C5C6893C910511F00C94392C90EAE92EFE
:103550009BE0F92E07E611E024E0D22ED00EFEC645
:103560008C3D910511F40C94BE24A4F48D3C91057E
:1035700009F4A3C70CF429C78E3C910511F40C94EF
:10358000DE22833D910511F00C94392CE1E4F3E245
:103590000C94DF23883131E0930711F40C946725F4
:1035A00064F48D3D910511F40C94CD24823E910577
:1035B00011F40C943C250C94392C823251E095077F
:1035C00011F40C9411268C32914011F40C941E26A7
:1035D0000C94392C8C3AB1E09B0711F40C94002325
:1035E000F4F58139F1E09F0711F40C94FE29C4F43D
:1035F0008F3231E0930711F40C94EB2614F40C9401
:10360000E826833651E0950711F40C94FB298039A4
:10361000914011F00C94392C0E94116C0C948A2C5E
:103620008A39B1E09B0709F45EC364F482399140A2
:1036300011F00C94392C80E00E94E1330E94F04399
:103640000C948A2C843A21E0920711F40C94042AF9
:10365000853A914011F40C940C2B0C94392C883F32
:1036600041E0940711F40C94B22BECF4853FA1E0F7
:103670009A0711F40C94A02B4CF4843F914011F064
:103680000C94392C0E9401540C948A2C863FF1E052
:103690009F0711F40C94A32B873F914011F40C94D5
:1036A000A62B0C94392C8B3833E0930711F40C942F
:1036B0008A2C6CF48C3052E0950711F40C94B52BE5
:1036C0008335934011F40C94BE2B0C94392C803A22
:1036D000B3E09B0709F4E4C1873E934011F40C94D6
:1036E000242C0C94392CA090B313B090B41380E523
:1036F0000E94D337882359F00E9415376B017C0153
:1037000011E0672B682B692B31F410E004C010E046
:10371000C12CD12C760183E50E94D337882311F484
:103720000C948F2C0E94593720E030E04AE754E493
:103730000E9469F00E94CEF56B017C0111110BC053
:10374000672B682B692B39F4A114B10421F0D50142
:103750008C91811102C010E001C011E00E94116C37
:10376000112329F061E0C5010E9493BF05C060E00C
:1037700085E791E00E9457BF83E08093910F81E03D
:103780008093E80EC114D104E104F104E9F00E9431
:10379000D5AEC60ED71EE81EF91E0E94D5AEDC01BE
:1037A000CB018C199D09AE09BF09B7FD06C00E9467
:1037B0007B9D1092E80E0C948A2C8091E80E882351
:1037C000B1F30E9425C3E9CF8091E80E882379F3F5
:1037D0000E9425C3F9CF60E088E891E00E9457BFBE
:1037E0005E985E9815985E980C948A2CE0EAF1E059
:1037F00084918F010F5F1F4F882321F00E947E3834
:10380000F801F6CF1092641340E050E0BA0187E16E
:1038100091E10E9449638BE1E7E1F1E1DE01159658
:1038200001900D928A95E1F78091151190911611F2
:103830009C838B8389E292E09A83898340E050E005
:10384000BE016F5F7F4F80E090E00E942BA6CE010B
:1038500001960E94EFD6E1E9F1E084918F010F5FBC
:103860001F4F882311F40C948A2C0E947E38F80193
:10387000F4CF0E9470CC0C948A2C1092BF1010923E
:10388000C0100C948A2CE091B313F091B413808192
:10389000882329F0803209F410823196F8CF40E075
:1038A00061E08091B3139091B4130E9456A80C94D8
:1038B0008A2C8091C010882319F081E08093BF107A
:1038C0000E94A4BB0C948A2C1092BF100E94DEBBF5
:1038D0000C948A2C8091C010882311F40C948A2CAB
:1038E00083E50E94D33781110C94942C0C948A2C7C
:1038F0000E94BC470C948A2C0E94B4470C948A2CDA
:103900008091C010882311F40C948A2C8FEA92E1E4
:103910000E9416638FEA92E10E94A7691092BE107E
:103920001092BD100091B3131091B4138091C01088
:10393000882311F40C948A2C0E9430DCB801CE014B
:1039400080960E9478DB8C01892B11F40C948A2CD0
:1039500068A179A16115710511F06C5F7F4F198223
:103960001C8222E0A801CE0101960E94B06981115B
:1039700002C0F12C14C0CE0101960E94E6DA882321
:10398000C1F361E0CE0101960E94FAD1009789F35C
:1039900025EEFC0120831C820E942361F82ECE01BB
:1039A00001960E946E38FF2011F1E1EBF1E0849165
:1039B0007F012FEFE21AF20A882321F00E947E385D
:1039C000F701F5CFD8018D918D01882319F00E9460
:1039D0007E38F8CF8AE00E947E38109260131092F1
:1039E000611310926213109263130C948A2CEFEB04
:1039F000F1E084917F01BFEFEB1AFB0A882321F0ED
:103A00000E947E38F701F5CFF80181918F0188235C
:103A100019F00E947E38F8CF8EE20E947E380C9416
:103A20008A2C8091BF1081110E94116C8091C0106E
:103A3000882311F40C948A2C80E50E94D3378823C4
:103A400019F00E94493703C080E50E948C37182F77
:103A5000482F61E08091B3139091B4130E9456A84F
:103A600083E50E94D337882381F00E942537AB017C
:103A7000BC01409360135093611360936213709381
:103A800063138FEA92E10E9449638091C0108823FA
:103A900019F081E08093BF1011110C948A2C10CF83
:103AA0008091B3139091B41321E02093BE1040E0B5
:103AB00060E00E9456A80C948A2C0E9470BBACE374
:103AC000CA2ED12CE12CF12CA70196010E94F7F30C
:103AD000762E672ECA01B901A70196010E94F7F35D
:103AE0006B017C01CA01B90128E130E040E050E0FF
:103AF0000E94F7F34B015C01C9016DE671E00E9481
:103B000079F78E010F5F1F4F6115710599F06F9264
:103B10007F92DF92CF929F928F929F938F937F930A
:103B20006F938FEF91E09F938F931F930F930E945A
:103B30009AEF12C00097B1F06F927F92DF92CF920E
:103B40009F928F929F938F938FEE91E09F938F938D
:103B50001F930F930E949AEF0FB6F894DEBF0FBE2B
:103B6000CDBF36C081149104A104B10479F06F92E5
:103B70007F92DF92CF929F928F9283EE91E09F93FC
:103B80008F931F930F930E949AEFE6CFC114D10435
:103B9000E104F10469F06F927F92DF92CF928BED96
:103BA00091E09F938F931F930F930E949AEFD4CF2E
:103BB0006F927F9287ED91E09F938F931F930F9366
:103BC0000E949AEF0F900F900F900F900F900F9010
:103BD00060E0C8010E9493BFE1E4F3E284917F01B9
:103BE000BFEFEB1AFB0A882321F00E947E38F70111
:103BF000F5CFB80183E192E00E94CC7D8AE00E947B
:103C00007E380C948A2C83E50E94D337882311F4E4
:103C10000C948A2C0E943537E82E80E50E94D33719
:103C2000882311F40C948A2C0E943537182F87FFB3
:103C300002C00C948A2C89E40E94D337882349F06F
:103C40000E944937811111C0E1EFF4E08DE28E0F3F
:103C500007C089E40E948C37F5CF31968E1729F082
:103C600094911913FACF0C944A2E61E0812F0E948F
:103C70001A866E2D812F0E94EA85F12CB701812FC3
:103C80000E9429AE143011F00C948A2CF092891302
:103C9000E09288130C948A2C0E94DEBB0C948A2C30
:103CA0000E947F470C948A2C8EE40E94D33788238D
:103CB00011F40C948A2C0E9425376093700E709337
:103CC000710E8093720E9093730E0C948A2C0E9446
:103CD000BB440C948A2C10921F010C948A2C80E215
:103CE00092E00E94F7D60E9418430C948A2C83E538
:103CF0000E94D337882369F00E9435378D3320F432
:103D0000809355010C948A2C8CE3809355010C947C
:103D10008A2CE1E4F3E284918F010F5F1F4F882327
:103D200021F00E947E38F801F6CF4091550150E015
:103D300060E070E089E292E00E94797D8AE00E9472
:103D40007E380C948A2C0E944B450C948A2C8091CE
:103D50008F0B83FF02C00C948A2C83E50E94D3371B
:103D60008AAB81110C94A52C82E50E94D337811176
:103D70000C94A52C0C948A2C80E50E94D3378111D9
:103D800006C083E50E94D337882361F006C00E94F5
:103D9000353781110C948A2CF4CF0E9425376F3F60
:103DA000710510F06FEF70E07093891360938813C2
:103DB0000C948A2C80E50E94D337811106C01092A2
:103DC0008913109288130C948A2C0E942537672B34
:103DD00011F00C948A2CF3CF0E9441B60E94216C02
:103DE000109289131092881368EE73E080E090E0DF
:103DF0000E94A0B360E082E592E00E9457BF0C945D
:103E00008A2C10926B020C948A2C83E50E94D33783
:103E10008823A1F00E94593720E030E04AE754E4BB
:103E20000E9469F00E94CEF560935601709357018D
:103E300080935801909359010C948A2C88E50E9434
:103E40008C3781110C94252E89E50E948C378111C5
:103E50000C94252E8AE50E948C3781110C94252E16
:103E600085E40E948C3781110C94252E0E94216CD0
:103E70000C948A2C83E50E948C37882311F40C94CF
:103E80008A2C0E94593720E030E04AE754E40E942F
:103E900069F00E94CEF56093960F7093970F809310
:103EA000980F9093990F0C948A2C67E6C62E61E0C8
:103EB000D62E70EBE72E7BE0F72E10E0D6018D9129
:103EC0006D010E948C37882309F46DC0133009F00E
:103ED00063C00E9459374B015C0120E030E040EAAA
:103EE00051E40E9403F087FF4EC0A5019401609148
:103EF000BC0B7091BD0B8091BE0B9091BF0B0E94CB
:103F000055F52B013C019B01AC016091620B709156
:103F1000630B8091640B9091650B0E9469F0609334
:103F2000620B7093630B8093640B9093650BA301FA
:103F3000920160917E0B70917F0B8091800B90912C
:103F4000810B0E9469F060937E0B70937F0B8093CE
:103F5000800B9093810B60919C0B70919D0B8091D5
:103F60009E0B90919F0B0E9408F0A30192010E946A
:103F700069F00E94CEF560939C0B70939D0B80932B
:103F80009E0B90939F0B8092BC0B9092BD0BA092C6
:103F9000BE0BB092BF0B07C00E945937F701608378
:103FA0007183828393831F5FF4E0EF0EF11C143062
:103FB00009F084CF0E945D8C0C948A2C0E94116CB5
:103FC00083E50E94D337882309F4AEC90E942537C0
:103FD0006230710509F0A8C90E94D2C98BE50E9420
:103FE0007E386091850F7091860F8091870F909138
:103FF000880F42E00E94A7414091890F50918A0F9B
:1040000060918B0F70918C0F82E692E00E94967DFA
:1040100040918D0F50918E0F60918F0F7091900F86
:104020008FE592E00E94967D8DE50E947E388AE0C1
:104030000E947E380C948A2CE4E4F3E084918F0192
:104040000F5F1F4F882321F00E947E38F801F6CFC2
:1040500060E084E393E00E94AC4361E08DE293E092
:104060000E94AC4361E082E293E00E94AC4361E0D5
:1040700082E193E00E94AC4360E089E093E00E941B
:10408000AC4361E08FEF92E00E94AC4361E085EFCA
:1040900092E00E94AC4361E08DEE92E00E94AC435E
:1040A00061E08FED92E00E94AC4360E081ED92E030
:1040B0000E94AC4360E082EC92E00E94AC4360E07E
:1040C00084EB92E00E94AC4360E08EE992E00E94B3
:1040D000AC4360E08DE892E00E94AC4360E088E78A
:1040E00092E00E94AC4361E085E692E00E94AC431E
:1040F0000C948A2C8091B3139091B413DC012C9111
:10410000211104C00E947B9D0C948A2C60E00E94C7
:1041100093BF0C948A2C0091B3131091B41383E0D5
:10412000D12C40E08150E1F0F8019081292F2B7FC4
:104130002134C1F721812133A9F7913421F095343D
:1041400021F441E002C0DD24D39498012E5F3F4F5B
:1041500089012F5F3F4FD8019C919032C9F3E2CF84
:10416000442369F0E1E4F3E284917F01BFEFEB1AAD
:10417000FB0A882321F00E947E38F701F5CFDD206D
:1041800069F0E7E0F4E084917F012FEFE21AF20A90
:10419000882321F00E947E38F701F5CFD8018D9158
:1041A0008D01882319F00E947E38F8CF8AE00E94A2
:1041B0007E380C948A2C0E945E6F0C948A2C81E0CD
:1041C0008093DA0F8093DB0F0C948A2C1092DA0F15
:1041D0001092DB0F0C948A2C83E50E94D33788233E
:1041E00019F00E94253702C060E070E08B011127B2
:1041F00002301105D4F0E6E2F3E284918F010F5F03
:104200001F4F882321F00E947E38F801F6CFEBE0A3
:10421000F4E084918F010F5F1F4F882311F40C94F9
:104220008A2C0E947E38F801F4CF88E40E94D337AC
:104230008823A9F00E9425376A3A71053CF0653061
:10424000B1E07B072CF064E071E002C06AEA70E044
:10425000F801EE0FFF1FEE51F44F7183608386E487
:104260000E94D3378823A9F00E942537F801EE0F6A
:10427000FF1FE651F44F718360836F3F710519F0A2
:1042800014F06FEF70E077FF02C060E070E07183C0
:10429000608382E40E94D337882311F40C948A2C23
:1042A0000E9425376530710534F06F3671052CF0AA
:1042B0006EE670E002C065E070E0000F111FF801CB
:1042C000EA51F44F718360830C948A2C88EC90E05F
:1042D0000E94494181110C948A2C84E40E948C37FD
:1042E0008823C1F10E94593711E020E030E0A90194
:1042F0000E9403F0811101C010E010930D101123F2
:1043000049F10E945937E091550A24E0E29FF001FB
:104310001124E75FFF4E608371838283938320E0E3
:1043200030E0A9016091091070910A1080910B1082
:1043300090910C100E9403F081110CC080E090E07D
:10434000A0EEBFE38093091090930A10A0930B1086
:10435000B0930C100E94A26A0C948A2CD8018D9103
:104360008D010E948C37882349F00E9459370E94A2
:10437000CEF5F7016083718382839383F4E0EF0EBF
:10438000F11CD012EBCF0E94188B0C948A2CB2E750
:10439000EB2EBBE0FB2E07E611E084E0D82ED00E1A
:1043A000D8018D918D010E948C37882339F00E94AD
:1043B0005937F7016083718382839383F4E0EF0EB2
:1043C000F11CD012EDCF0C948A2C83E50E94D337D8
:1043D0008823A1F00E94593760936A0B70936B0B8E
:1043E00080936C0B90936D0B6093660B7093670BCF
:1043F0008093680B9093690B10E001C011E080E599
:104400000E94D337882359F00E94593760936A0B72
:1044100070936B0B80936C0B90936D0B10E082E5A7
:104420000E94D337882359F00E94593760936E0B4E
:1044300070936F0B8093700B9093710B10E084E579
:104440000E94D337882361F00E9459376093660B2E
:104450007093670B8093680B9093690B0C948A2C74
:10446000112311F40C948A2C40916A0B50916B0B20
:1044700060916C0B70916D0B83E394E00E94967DCC
:1044800040916E0B50916F0B6091700B7091710B9E
:1044900080E394E00E94967D4091660B5091670BFB
:1044A0006091680B7091690B8DE294E00E94967D9B
:1044B0008AE00E947E380C948A2C81E50E948C3719
:1044C000882351F00E9415376093820B7093830B01
:1044D0008093840B9093850B83E50E948C3788230F
:1044E00051F00E94593760938A0B70938B0B809325
:1044F0008C0B90938D0B84E50E948C37882351F0B0
:104500000E9459376093860B7093870B8093880BBA
:104510009093890B88E50E948C37882351F00E9484
:1045200059376093560B7093570B8093580B9093A9
:10453000590B89E50E948C37882351F00E94593726
:1045400060935A0B70935B0B80935C0B90935D0BA5
:104550008AE50E948C378823F1F00E9459376093D6
:104560005E0B70935F0B8093600B9093610B2DEC4F
:104570003CEC4CEC5DE30E9403F0181664F0E3E4BD
:10458000F4E084918F010F5F1F4F882321F00E9478
:104590007E38F801F6CF85E40E948C37882311F429
:1045A0000C948A2C0E9459376093620B7093630BB2
:1045B0008093640B9093650B0C948A2CF7E6CF2EB6
:1045C000F1E0DF2EAEEBEA2EA8E0FA2E10E0D601E5
:1045D0008D916D010E948C37882351F00E945937CC
:1045E000F7016083718382839383812F0E948034DB
:1045F0001F5FF4E0EF0EF11C133049F70C9494198F
:104600000E9491AB81110C948A2CE3EB8E2EEAE28E
:104610009E2E21E53EE03FA32EA3AE014F5F5F4FEC
:104620005A010AED19E21A0153E0500F5AA7F4019A
:104630006591759185919491AEA1BFA1CD90DD90CA
:10464000ED90FD90BFA3AEA3A70196010E945AF47E
:104650002B013C0120E030E040EA51EC0E94BBF627
:1046600087FD10C020E030E040EA51E4C301B20110
:104670000E9403F0181634F0F101408251826282E8
:1046800073820DC0F80184911816B4F7F7FAF0940C
:10469000F7F8F094F101C082D182E282F382D10175
:1046A000CD90DD90ED90FD901D0120E030E040EADE
:1046B00051ECC701B6010E94BBF687FF03C0E6E2DA
:1046C000F3E20BC020E030E040EA51E4C701B6015C
:1046D0000E9403F018167CF5F2CF84918F010F5FD2
:1046E0001F4F882321F00E947E38F801F6CFE3E9BE
:1046F000F4E084918F010F5F1F4F882321F00E9407
:104700007E38F801F6CF61E085E894E00E9457BF5B
:104710000E94925F88E290E099A388A388EC90E0E1
:104720009DA38CA3BE01605E7F4FCE0184960E9444
:1047300047AA0C948A2CB4E08B0E911C0F5F1F4F7C
:10474000EAA5E01374CF7EEBE72E78E0F72E10E0B9
:10475000F50181919191A191B1915F01F70181934F
:104760009193A193B1937F01812F0E9480341F5FA9
:10477000133071F70E94F04360E085E794E00E94F7
:1047800057BF83E992E09DA38CA304E610E019A330
:1047900008A3BE016C5D7F4FCE0180960E9447AAA0
:1047A0008AEB92E09DA38CA319A308A3BE016C5DC4
:1047B0007F4FCE0180960E9447AA0C948A2C849148
:1047C0008F010F5F1F4F882321F00E947E38F80170
:1047D000F6CF83E50E948C37882321F00E94493769
:1047E00080934401E9EDF4E084918F010F5F1F4F46
:1047F000882321F00E947E38F801F6CF8091440191
:10480000811103C0E5EDF4E002C0E1EDF4E0849134
:104810008F010F5F1F4F882321F00E947E38F8011F
:10482000F6CFE9ECF4E084918F010F5F1F4F8823EE
:1048300021F00E947E38F801F6CF2091ED0F3091E3
:10484000EE0F4091EF0F5091F00F6091EE0B7091D1
:10485000EF0B8091F00B9091F10B0E945BF4AB0198
:10486000BC0187EC94E00E94967D2091F10F30917D
:10487000F20F4091F30F5091F40F6091F20B709191
:10488000F30B8091F40B9091F50B0E945BF4AB015C
:10489000BC0184EC94E00E94967D2091F50F30914C
:1048A000F60F4091F70F5091F80F6091F60B709151
:1048B000F70B8091F80B9091F90B0E945BF4AB0120
:1048C000BC0181EC94E00E94967DE9EBF4E08491D8
:1048D0008F010F5F1F4F882321F00E947E38F8015F
:1048E000F6CF2091ED0F3091EE0F4091EF0F5091E8
:1048F000F00F609138017091390180913A019091E7
:104900003B010E945BF4AB01BC0187EB94E00E9489
:10491000967D2091F10F3091F20F4091F30F50915D
:10492000F40F60913C0170913D0180913E019091A6
:104930003F010E945BF4AB01BC0184EB94E00E9458
:10494000967D2091F50F3091F60F4091F70F509121
:10495000F80F609140017091410180914201909166
:1049600043010E945BF4AB01BC0181EB94E00E9427
:10497000967D8AE00E947E380C948A2C83E50E9402
:10498000D337882311F40C948A2C0E942537709316
:104990003701609336010C948A2C8DED90E00E94D3
:1049A000494181110C948A2C83E50E94D3378823D6
:1049B000D9F10091550A10E00E942537000F111F10
:1049C000F801EC5CFE4F718360838091550A90E0A2
:1049D0008C01000F111F000F111F9801205D3E4F29
:1049E0007901880F991FFC01EC5CFE4F6081718199
:1049F000072E000C880B990B0E940AF02AE037ED75
:104A000043E25CE30E9469F0F801E252F44F208136
:104A10003181428153810E9469F0D7016D937D936A
:104A20008D939C93139776C7E1E4F3E284918F0111
:104A30000F5F1F4F882321F00E947E38F801F6CFC8
:104A400085E40E947E388091550A805D0E947E3800
:104A5000E091550AF0E0EE0FFF1FEC5CFE4F608125
:104A6000718189EE94E00E94B37D85E20E947E38D8
:104A70008AE00E947E384EC780E50E948C378823EA
:104A800009F448C70E9425376B017C0183E50E9429
:104A9000D337882321F00E9425378B0102C00FEF06
:104AA0001FEFC8010196039708F034C7D7FC32C73F
:104AB0009C2DE1EFF4E08DE28E0F2491921711F41A
:104AC0000C944A2E31968E13F8CF0C944D2E80E51F
:104AD0000E948C37882309F41DC70E9425376B017B
:104AE0007C018B01672B09F07EC083E50E948C3727
:104AF000882339F00E9425378CE990E10E94107CD0
:104B000009C7E1E4F3E284917F01BFEFEB1AFB0AEE
:104B1000882321F00E947E38F701F5CF60E070E035
:104B200087E395E00E94B37D80919E1028E532E0F6
:104B30006901C81AD10887FDD394CC0CDD1CCC0CBC
:104B4000DD1C0D2C000CEE08FF0880919D1028E85C
:104B500030E04901881A910887FD9394880C991CCC
:104B6000880C991C092C000CAA08BB0880919C1089
:104B70008F3FB9F090E0FC01EE0FFF1F8E0F9F1FDB
:104B8000FC01E958FF4E01811281B3E0000F111FB3
:104B9000BA95E1F784E0169507958A95E1F70E5FDF
:104BA0001F4F98012F5F3F4FC901330FAA0BBB0B5B
:104BB0009C01AD01281939094A095B09A4EBB0E051
:104BC0000E9438F4A7019601281939094A095B099E
:104BD0000E9419F4B90184E395E00E94B37D8AE054
:104BE0000E947E3897C6E6E2F3E284918F010F5F60
:104BF0001F4F882321F00E947E38F801F6CFB601BE
:104C00008DE295E00E94B37DEEE1F5E084918F01A5
:104C10000F5F1F4F882309F47DC60E947E38F8017C
:104C2000F5CF8AE50E94D33781110C94752E83E568
:104C30000E94D33781110C94752E6CC683E50E94B7
:104C4000D337882319F00E94253702C064E071E051
:104C500079A368A380E50E94D337882339F00E94A6
:104C600025376938E3E17E0730F402C068EE73E06F
:104C70007A83698304C088E893E19A838983BE01BB
:104C8000605E7F4FCE0101960E9447AA43C685E42D
:104C90000E94D337811110C080E50E948C37882391
:104CA00091F00E945937609394087093950880930F
:104CB00096089093970807C00E943537882361F3C0
:104CC000E6E2F3E26EC089E40E948C37882381F02B
:104CD0000E9459372CEA35EC47E25EE30E9469F006
:104CE00060939C0870939D0880939E0890939F0802
:104CF00084E40E948C37882381F00E9459372CEA83
:104D000035EC47E25EE30E9455F560939808709396
:104D1000990880939A0890939B08E1E4F3E28491C8
:104D20008F010F5F1F4F882321F00E947E38F8010A
:104D3000F6CF409194085091950860919608709133
:104D4000970888E595E00E94967D2CEA35EC47E2CD
:104D50005EE360919C0870919D0880919E089091FF
:104D60009F080E9455F5AB01BC0184E595E00E94C7
:104D7000967D2CEA35EC47E25EE3609198087091ED
:104D8000990880919A0890919B080E9469F0AB0164
:104D9000BC0180E595E00E94967D8AE00E947E3805
:104DA000B9C584918F010F5F1F4F882321F00E94A6
:104DB0007E38F801F6CFECE5F5E084918F010F5FC6
:104DC0001F4F882309F4A6C50E947E38F801F5CF4D
:104DD0000E9456439FC585E40E94D337882321F063
:104DE0000E9425377B0102C0E12CF12C83E40E9454
:104DF000D337882331F00E94253728966FAF289744
:104E000004C0F5E02896FFAF289785E50E94D337C8
:104E1000882319F00E94493703C085E50E948C372A
:104E200064968FAF6497F7FC07C0812C912C56E1F4
:104E3000A52E53E4B52E06C0812C912C4CE8A42E4F
:104E400042E4B42E83E50E94D337882321F00E94E8
:104E500059374B015C01E114F10411F41092550A29
:104E60000E94D5AE2B013C01EE2069F0ECE1F7E0A9
:104E700084918F010F5F1F4F882309F44BC50E9457
:104E80007E38F801F5CFC501B4010E94C7F5072EA1
:104E9000000C880B990B0E940AF06EA77FA788ABC5
:104EA00099AB60916501709166016F507109072E91
:104EB000000C880B990B0E940AF09B01AC016EA5B7
:104EC0007FA588A999A90E94BBF618166CF4EDED90
:104ED000F6E084918F010F5F1F4F882309F41AC5F4
:104EE0000E947E38F801F5CFE8E0F7E084917F0179
:104EF0002FEFE21AF20A882321F00E947E38F70190
:104F0000F5CFD301C201805E914BAF4FBF4FA0964A
:104F10008CAF9DAFAEAFBFAFA0970E9441B68FE7F9
:104F20008093530A81E080931F012F964CAE5DAEB3
:104F30006EAE7FAE2F9768964CAE5DAE6EAE7FAE16
:104F400068972B961FAE2B976C961CAE1DAE1EAEAF
:104F50001FAE6C971CAA90E498AFACE1A9AFB6E481
:104F6000BAAF1BAE1CAE1DAE1EAE27961CAE1DAE5C
:104F70001EAE1FAE279723961CAE1DAE1EAE1FAEF3
:104F80002397C12CD12C76012FE730E040E050E090
:104F90002AA73BA74CA75DA73FE7832E912CA12C06
:104FA000B12C63961CAE1DAE1EAE1FAE639731E0F2
:104FB0002A963FAF2A971BAA1AAA10E0212C312C5F
:104FC00000E028964FAD2897042E000C550B29962B
:104FD0005FAF4EAF299780911F01882309F4C9C0A4
:104FE0000E94D5AE6EA37FA388A799A78091800E5B
:104FF000882309F4A2C00E9414B71091E702209000
:10500000E8023090E9020091EA02212F322D432D6F
:10501000502F6BAD7CAD8DAD9EAD0E9403F087FF30
:1050200004C01BAF2CAE3DAE0EAF212F322D432D51
:10503000502F6CA978AD89AD9AAD0E94BBF61816B9
:1050400024F41CAB28AE39AE0AAF2A965FAD2A977E
:105050002EA53FA548A9552309F450C059A9612F91
:10506000722D832D902F0E94BBF618160CF065C090
:105070008EA19FA1A8A5B9A584199509A609B7096C
:10508000A4968CAF9DAFAEAFBFAFA49788589341A5
:10509000A109B109B7FD51C0D501C4012AA53BA59D
:1050A0004CA55DA5821B930BA40BB50BB595A795DD
:1050B000979587958093530AA4968CAD9DADAEAD20
:1050C000BFADA49763968CAF9DAFAEAFBFAF6397F4
:1050D0009EA59BAFAFA5ACAFB8A9BDAFE9A9EEAF98
:1050E0002EA13FA148A559A52F962CAF3DAF4EAF9D
:1050F0005FAF2F972A961FAE2A971FC059A9612F1D
:10510000722D832D902F0E9403F087FF16C08EA171
:105110009FA1A8A5B9A52F962CAD3DAD4EAD5FAD15
:105120002F97821B930BA40BB50BAC01BD01485804
:1051300053416109710977FF52C620E030E040EA2F
:1051400051E46EA57FA588A999A90E945BF49B01F3
:10515000AC01612F722D832D902F0E94BBF6181683
:105160007CF4E9E6F6E084918F010F5F1F4F811117
:1051700003C00E9441B6CEC30E947E38F801F3CF2F
:105180008EA19FA1A8A5B9A568962CAD3DAD4EAD49
:105190005FAD6897821B930BA40BB50BB7FD90C056
:1051A0000E94938A8AE00E947E388EA19FA1A8A5C2
:1051B000B9A58053984FAF4FBF4F68968CAF9DAF46
:1051C000AEAFBFAF68972B969FAD2B9791115DC087
:1051D0006C962CAD3DAD4EAD5FAD6C97612F722DD1
:1051E000832D902F0E94BBF61816D4F520E030E0F6
:1051F00040E050E4612F722D832D902F0E945BF4CC
:105200006C966CAF7DAF8EAF9FAF6C972EA13FA118
:1052100048A559A5205E314B4F4F5F4FA0962CAF4C
:105220003DAF4EAF5FAFA09720E030E040EC50E4E0
:105230006EA57FA588A999A90E945AF49B01AC018B
:1052400081E02B968FAF2B97612F722D832D902F9E
:105250000E94BBF61816A4F12B961FAE2B9730C0F8
:105260008EA19FA1A8A5B9A5A0962CAD3DAD4EAD30
:105270005FADA097821B930BA40BB50BB7FD20C0AD
:1052800048E456E06AE576E018C020E030E040EA05
:1052900051E46EA57FA588A999A90E945AF49B01A3
:1052A000AC01612F722D832D902F0E9403F087FF98
:1052B00007C045E256E068E376E080E00E9435B73B
:1052C0008EA19FA1A8A5B9A5880F991FAA1FBB1FD2
:1052D0002F962CAD3DAD4EAD5FAD2F97821B930B3E
:1052E000A40BB50B84199509A609B70981389F4409
:1052F000A241B10568F0E7E0F6E084918F010F5F0D
:105300001F4F882309F435CF0E947E38F801F5CF6E
:105310004AA95BA929968EAD9FAD29978417950759
:105320000CF066C0EAEAF5E084918F010F5F1F4F31
:10533000882321F00E947E38F801F6CFB701A6013C
:1053400086E995E00E94967D8AE00E947E38239649
:105350004CAD5DAD6EAD7FAD239782E895E00E94C8
:10536000967D8AE00E947E3827964CAD5DAD6EAD8D
:105370007FAD27978EE695E00E94967D8AE00E9499
:105380007E3864969FAD6497992309F4C3C2C09296
:105390009408D0929508E0929608F09297082CEA2B
:1053A00035EC47E25EE323966CAD7DAD8EAD9FADEF
:1053B00023970E9469F060939C0870939D088093E6
:1053C0009E0890939F082CEA35EC47E25EE327960F
:1053D0006CAD7DAD8EAD9FAD27970E9455F5609366
:1053E00098087093990880939A0890939B0892C2AA
:1053F0000E94BCBFF0CD0E94D9428CC281E00E94C5
:10540000E1330E94F04386C283E50E948C378823F3
:1054100049F00E944937082F811106C080E00E94A0
:105420003F3602C00091690E8091510E9091520E4C
:10543000A091530EB091540E89839A83AB83BC83A1
:105440008091550E9091560EA091570EB091580E26
:105450008D839E83AF83B8878091590E90915A0EA9
:10546000A0915B0EB0915C0E89879A87AB87BC8751
:105470008091330390913403892B71F183E40E946E
:105480008C378111EDC528C093014AA55EA5682D12
:105490007D2D8FA598A90E945BF420E030E040E0CC
:1054A0005FE30E9469F0A20191010E945BF44B014D
:1054B0005C012DEB37E346E855EB0E94BBF687FD18
:1054C0001FC62DEB37E346E855E3C501B4010E9442
:1054D00003F018160CF414C686E50E948C37882356
:1054E00041F08091330390913403892B11F00E9495
:1054F0001C428AE50E948C37882321F00E9459378C
:105500000E947BAA802F0E943F36011103C0E1E474
:10551000F3E21CC08091690E8111F9CFE6E2F3E25B
:1055200084918F010F5F1F4F882321F00E947E38E6
:10553000F801F6CFE6E6F7E084918F010F5F1F4F89
:10554000882329F30E947E38F801F6CF84918F01D9
:105550000F5F1F4F882321F00E947E38F801F6CF9D
:105560008091690E811103C061E472E002C06DE3B5
:1055700072E088E597E00E94CC7D8AE00E947E3848
:10558000E1E4F3E284918F010F5F1F4F882321F044
:105590000E947E38F801F6CFEBE4F7E084918F01AA
:1055A0000F5F1F4F882321F00E947E38F801F6CF4D
:1055B000C0906A0ED0906B0EE0906C0EF0906D0E65
:1055C00020E030E0A901C701B6010E94BBF6181621
:1055D0004CF442E0C701B6010E94A7418AE00E9454
:1055E0007E380CC0E6E4F7E084918F010F5F1F4F17
:1055F000882321F00E947E38F801F6CF4CE050E07D
:1056000061E57EE0CE0101960E94B7F7892B09F48F
:1056100081C10E94F0437EC189E40E94D337882370
:1056200021F00E942537062F01C00FEF8AE40E9467
:10563000D337882321F00E942537162F01C01FEF92
:105640008AE50E948C37F82E811105C081E50E9401
:105650008C37D82E01C0D12C07FD02C017FF03C024
:10566000E6E2F3E205C0F1101AC0D11018C0F8CF7D
:1056700084918F010F5F1F4F882321F00E947E3895
:10568000F801F6CFE4EAF7E084918F010F5F1F4F36
:10569000882309F43FC10E947E38F801F5CF03301A
:1056A00018F0E6E2F3E206C01330D8F716C00E9405
:1056B0007E38F80184918F010F5F1F4F8111F7CF62
:1056C000E5E8F7E084918F010F5F1F4F882309F40D
:1056D00021C10E947E38F801F5CFE02E000FFF08AF
:1056E000012F110F110B0E945937D701AA0FBB1FB1
:1056F000DD2081F0FD01EE0DFF1DE00FF11FEE0F2B
:10570000FF1FEE0FFF1FE95CFC4F208131814281BA
:10571000538103C020E030E0A901EA0EFB1E0E0D0C
:105720001F1D000F111F000F111F095C1C4F0E944D
:105730005BF4D8016D937D938D939C931397EAC08E
:105740000E94F353E7C00E94444DE4C083E50E94E9
:105750008C37882321F00E94493791E089270E94E5
:10576000966FD8C00E94F442D5C08091BF108823A4
:1057700009F4D0C081E08093C210CCC08AE50E94B9
:10578000D337882309F438C00E9459376B017C0154
:1057900020E030E040EA51EC0E94BBF687FD13C0E8
:1057A00020E030E040EA51E4C701B6010E9403F076
:1057B00018164CF0C092F90FD092FA0FE092FB0F3E
:1057C000F092FC0FA7C0E6E2F3E284918F010F5F35
:1057D0001F4F81110DC0E6EDF7E084918F010F5F3F
:1057E0001F4F882309F496C00E947E38F801F5CF38
:1057F0000E947E38F801E9CFE1E4F3E284918F0161
:105800000F5F1F4F882321F00E947E38F801F6CFEA
:10581000E7ECF7E084918F010F5F1F4F882321F0A1
:105820000E947E38F801F6CF4091F90F5091FA0F9F
:105830006091FB0F7091FC0F84EC97E00E94967DC5
:105840008AE00E947E3866C081E080934601109213
:10585000500E83E50E94D337882339F00E944937E0
:10586000811158C00E9448CC55C083E50E948C37F6
:10587000F7CF0E94DDD14EC0F090B5130E94116C9D
:105880001091690E80E00E943F36FF2029F1E1E48B
:10589000F3E284918F010F5F1F4F882321F00E9454
:1058A0007E38F801F6CF84E50E947E386F2D70E0D7
:1058B00080E090E04AE00E94E14080E20E947E3871
:1058C000E5E0F8E084918F010F5F1F4F882311F10D
:1058D0000E947E38F801F6CF1092D50E812F0E94DB
:1058E0003F36E1E4F3E284918F010F5F1F4F88237D
:1058F00021F00E947E38F801F6CF6091D50E70E05D
:1059000083EF97E00E94B37D8AE00E947E3802C058
:105910000E94DDD11092910F0E942BCC35C4111141
:105920000C94AB1B0C94A41B0E942537AB01BC014B
:1059300040936013509361136093621370936313E9
:105940008FEA92E10E944963E5CF0E9459370E9495
:10595000C7F56E3671050CF075C1709385136093B1
:1059600084130E94ABB50E94593720E030E040EA32
:1059700050E40E94BBF6181614F40E94A4BB609178
:10598000841370918513072E000C880B990B0E94CD
:105990000AF02091EB023091EC024091ED0250911F
:1059A000EE020E94BBF618161CF084E392E002C0DF
:1059B00083E492E060E00E9457BF81E080931F0182
:1059C0008091D50E8093550A1AA61BA61CA61DA66B
:1059D0001CAA1DAA1EAA1FAA1EA218AEECE3E9AFBC
:1059E000FCE1FAAF26E42BAFC12CD12CE0E8EE2E7F
:1059F000FFEBFF2E812C912C540160918413709148
:105A00008513072E000C880B990B0E940AF0162FA5
:105A1000072F782E692E262F372F482F592FB601A2
:105A2000C7010E9403F08823F1F02091EB0230912E
:105A3000EC024091ED025091EE02612F702F872D04
:105A4000962D0E9403F0881F8827881F8EA33AA9ED
:105A5000332369F0882359F080911F01882309F4CA
:105A600059CF0C9482201C2D0D2D7E2C6F2C0E9462
:105A7000D5AE6B017C01DC01CB012CA93DA94EA95F
:105A80005FA9821B930BA40BB50BB7FD3BC0D701DD
:105A9000C60188519C4FAF4FBF4F8CAB9DABAEAB97
:105AA000BFAB0E94938AE0E3F2E084912F019FEF65
:105AB000491A590A882321F00E947E38F201F5CF55
:105AC00081149104A104B104B9F0D501C401805F2F
:105AD000984DAF4FBF4FBC01CD016C197D098E09A8
